{
  "_format": "hh-sol-artifact-1",
  "contractName": "EthDB",
  "sourceName": "contracts/EthDB.sol",
  "abi": [
    {
      "inputs": [],
      "name": "clientIdCounter",
      "outputs": [
        {
          "internalType": "uint16",
          "name": "",
          "type": "uint16"
        }
      ],
      "stateMutability": "view",
      "type": "function"
    },
    {
      "inputs": [],
      "name": "companyIdCounter",
      "outputs": [
        {
          "internalType": "uint16",
          "name": "",
          "type": "uint16"
        }
      ],
      "stateMutability": "view",
      "type": "function"
    },
    {
      "inputs": [
        {
          "internalType": "string",
          "name": "postalAddress",
          "type": "string"
        },
        {
          "internalType": "string",
          "name": "name",
          "type": "string"
        },
        {
          "internalType": "string",
          "name": "email",
          "type": "string"
        },
        {
          "internalType": "string",
          "name": "phone",
          "type": "string"
        },
        {
          "internalType": "string",
          "name": "nationalId",
          "type": "string"
        }
      ],
      "name": "createClient",
      "outputs": [],
      "stateMutability": "nonpayable",
      "type": "function"
    },
    {
      "inputs": [
        {
          "internalType": "string",
          "name": "vat",
          "type": "string"
        },
        {
          "internalType": "string",
          "name": "postalAddress",
          "type": "string"
        },
        {
          "internalType": "string",
          "name": "name",
          "type": "string"
        }
      ],
      "name": "createCompany",
      "outputs": [],
      "stateMutability": "nonpayable",
      "type": "function"
    },
    {
      "inputs": [
        {
          "internalType": "string",
          "name": "productAddress",
          "type": "string"
        },
        {
          "internalType": "string",
          "name": "name",
          "type": "string"
        },
        {
          "internalType": "string",
          "name": "price",
          "type": "string"
        }
      ],
      "name": "createProduct",
      "outputs": [],
      "stateMutability": "nonpayable",
      "type": "function"
    },
    {
      "inputs": [],
      "name": "invoiceIdCounter",
      "outputs": [
        {
          "internalType": "uint16",
          "name": "",
          "type": "uint16"
        }
      ],
      "stateMutability": "view",
      "type": "function"
    },
    {
      "inputs": [],
      "name": "listClients",
      "outputs": [
        {
          "components": [
            {
              "internalType": "string",
              "name": "postalAddress",
              "type": "string"
            },
            {
              "internalType": "string",
              "name": "name",
              "type": "string"
            },
            {
              "internalType": "string",
              "name": "email",
              "type": "string"
            },
            {
              "internalType": "string",
              "name": "phone",
              "type": "string"
            },
            {
              "internalType": "string",
              "name": "nationalId",
              "type": "string"
            }
          ],
          "internalType": "struct EthDB.Client[]",
          "name": "",
          "type": "tuple[]"
        }
      ],
      "stateMutability": "view",
      "type": "function"
    },
    {
      "inputs": [],
      "name": "listCompanies",
      "outputs": [
        {
          "components": [
            {
              "internalType": "string",
              "name": "vat",
              "type": "string"
            },
            {
              "internalType": "string",
              "name": "postalAddress",
              "type": "string"
            },
            {
              "internalType": "string",
              "name": "name",
              "type": "string"
            },
            {
              "internalType": "uint16",
              "name": "id",
              "type": "uint16"
            }
          ],
          "internalType": "struct EthDB.Company[]",
          "name": "",
          "type": "tuple[]"
        }
      ],
      "stateMutability": "view",
      "type": "function"
    },
    {
      "inputs": [],
      "name": "listProducts",
      "outputs": [
        {
          "components": [
            {
              "internalType": "string",
              "name": "productAddress",
              "type": "string"
            },
            {
              "internalType": "uint16",
              "name": "id",
              "type": "uint16"
            },
            {
              "internalType": "string",
              "name": "name",
              "type": "string"
            },
            {
              "internalType": "string",
              "name": "price",
              "type": "string"
            }
          ],
          "internalType": "struct EthDB.Product[]",
          "name": "",
          "type": "tuple[]"
        }
      ],
      "stateMutability": "view",
      "type": "function"
    },
    {
      "inputs": [],
      "name": "productIdCounter",
      "outputs": [
        {
          "internalType": "uint16",
          "name": "",
          "type": "uint16"
        }
      ],
      "stateMutability": "view",
      "type": "function"
    }
  ],
  "bytecode": "0x60806040526000600460006101000a81548161ffff021916908361ffff1602179055506000600460026101000a81548161ffff021916908361ffff16021790555060006004806101000a81548161ffff021916908361ffff1602179055506000600460066101000a81548161ffff021916908361ffff160217905550348015608657600080fd5b50611a9e806100966000396000f3fe608060405234801561001057600080fd5b506004361061009e5760003560e01c8063870d4c9611610066578063870d4c961461013557806389bb9b0014610153578063a0c060d614610171578063d768468b1461018f578063e20ee269146101ab5761009e565b8063342ae8c6146100a357806343dd3753146100c157806344187237146100dd5780635bfb4baf146100fb5780637b60626d14610119575b600080fd5b6100ab6101c9565b6040516100b89190610f27565b60405180910390f35b6100db60048036038101906100d6919061109c565b6101db565b005b6100e56102e6565b6040516100f29190611364565b60405180910390f35b6101036105a9565b6040516101109190610f27565b60405180910390f35b610133600480360381019061012e9190611386565b6105bd565b005b61013d6106ca565b60405161014a9190610f27565b60405180910390f35b61015b6106de565b6040516101689190611560565b60405180910390f35b61017961099e565b6040516101869190610f27565b60405180910390f35b6101a960048036038101906101a49190611386565b6109b2565b005b6101b3610abb565b6040516101c091906116d6565b60405180910390f35b60048054906101000a900461ffff1681565b60006040518060a001604052808781526020018681526020018581526020018481526020018381525090508060026000600460069054906101000a900461ffff1661ffff1661ffff1681526020019081526020016000206000820151816000019081610247919061190e565b50602082015181600101908161025d919061190e565b506040820151816002019081610273919061190e565b506060820151816003019081610289919061190e565b50608082015181600401908161029f919061190e565b509050506004600681819054906101000a900461ffff16809291906102c390611a0f565b91906101000a81548161ffff021916908361ffff16021790555050505050505050565b60606000600460029054906101000a900461ffff1661ffff1667ffffffffffffffff81111561031857610317610f71565b5b60405190808252806020026020018201604052801561035157816020015b61033e610e83565b8152602001906001900390816103365790505b50905060005b600460029054906101000a900461ffff1661ffff168161ffff1610156105a1576000808261ffff1661ffff1681526020019081526020016000206040518060800160405290816000820180546103ac90611727565b80601f01602080910402602001604051908101604052809291908181526020018280546103d890611727565b80156104255780601f106103fa57610100808354040283529160200191610425565b820191906000526020600020905b81548152906001019060200180831161040857829003601f168201915b5050505050815260200160018201805461043e90611727565b80601f016020809104026020016040519081016040528092919081815260200182805461046a90611727565b80156104b75780601f1061048c576101008083540402835291602001916104b7565b820191906000526020600020905b81548152906001019060200180831161049a57829003601f168201915b505050505081526020016002820180546104d090611727565b80601f01602080910402602001604051908101604052809291908181526020018280546104fc90611727565b80156105495780601f1061051e57610100808354040283529160200191610549565b820191906000526020600020905b81548152906001019060200180831161052c57829003601f168201915b505050505081526020016003820160009054906101000a900461ffff1661ffff1661ffff1681525050828261ffff168151811061058957610588611a39565b5b60200260200101819052508080600101915050610357565b508091505090565b600460069054906101000a900461ffff1681565b60006040518060800160405280858152602001848152602001838152602001600460029054906101000a900461ffff1661ffff16815250905080600080600460029054906101000a900461ffff1661ffff1661ffff1681526020019081526020016000206000820151816000019081610636919061190e565b50602082015181600101908161064c919061190e565b506040820151816002019081610662919061190e565b5060608201518160030160006101000a81548161ffff021916908361ffff1602179055509050506004600281819054906101000a900461ffff16809291906106a990611a0f565b91906101000a81548161ffff021916908361ffff1602179055505050505050565b600460029054906101000a900461ffff1681565b6060600060048054906101000a900461ffff1661ffff1667ffffffffffffffff81111561070e5761070d610f71565b5b60405190808252806020026020018201604052801561074757816020015b610734610eaf565b81526020019060019003908161072c5790505b50905060005b60048054906101000a900461ffff1661ffff168161ffff16101561099657600160008261ffff1661ffff1681526020019081526020016000206040518060800160405290816000820180546107a190611727565b80601f01602080910402602001604051908101604052809291908181526020018280546107cd90611727565b801561081a5780601f106107ef5761010080835404028352916020019161081a565b820191906000526020600020905b8154815290600101906020018083116107fd57829003601f168201915b505050505081526020016001820160009054906101000a900461ffff1661ffff1661ffff16815260200160028201805461085390611727565b80601f016020809104026020016040519081016040528092919081815260200182805461087f90611727565b80156108cc5780601f106108a1576101008083540402835291602001916108cc565b820191906000526020600020905b8154815290600101906020018083116108af57829003601f168201915b505050505081526020016003820180546108e590611727565b80601f016020809104026020016040519081016040528092919081815260200182805461091190611727565b801561095e5780601f106109335761010080835404028352916020019161095e565b820191906000526020600020905b81548152906001019060200180831161094157829003601f168201915b505050505081525050828261ffff168151811061097e5761097d611a39565b5b6020026020010181905250808060010191505061074d565b508091505090565b600460009054906101000a900461ffff1681565b6000604051806080016040528085815260200160048054906101000a900461ffff1661ffff168152602001848152602001838152509050806001600060048054906101000a900461ffff1661ffff1661ffff1681526020019081526020016000206000820151816000019081610a28919061190e565b5060208201518160010160006101000a81548161ffff021916908361ffff1602179055506040820151816002019081610a61919061190e565b506060820151816003019081610a77919061190e565b5090505060048081819054906101000a900461ffff1680929190610a9a90611a0f565b91906101000a81548161ffff021916908361ffff1602179055505050505050565b60606000600460069054906101000a900461ffff1661ffff1667ffffffffffffffff811115610aed57610aec610f71565b5b604051908082528060200260200182016040528015610b2657816020015b610b13610edb565b815260200190600190039081610b0b5790505b50905060005b600460069054906101000a900461ffff1661ffff168161ffff161015610e7b57600260008261ffff1661ffff1681526020019081526020016000206040518060a0016040529081600082018054610b8290611727565b80601f0160208091040260200160405190810160405280929190818152602001828054610bae90611727565b8015610bfb5780601f10610bd057610100808354040283529160200191610bfb565b820191906000526020600020905b815481529060010190602001808311610bde57829003601f168201915b50505050508152602001600182018054610c1490611727565b80601f0160208091040260200160405190810160405280929190818152602001828054610c4090611727565b8015610c8d5780601f10610c6257610100808354040283529160200191610c8d565b820191906000526020600020905b815481529060010190602001808311610c7057829003601f168201915b50505050508152602001600282018054610ca690611727565b80601f0160208091040260200160405190810160405280929190818152602001828054610cd290611727565b8015610d1f5780601f10610cf457610100808354040283529160200191610d1f565b820191906000526020600020905b815481529060010190602001808311610d0257829003601f168201915b50505050508152602001600382018054610d3890611727565b80601f0160208091040260200160405190810160405280929190818152602001828054610d6490611727565b8015610db15780601f10610d8657610100808354040283529160200191610db1565b820191906000526020600020905b815481529060010190602001808311610d9457829003601f168201915b50505050508152602001600482018054610dca90611727565b80601f0160208091040260200160405190810160405280929190818152602001828054610df690611727565b8015610e435780601f10610e1857610100808354040283529160200191610e43565b820191906000526020600020905b815481529060010190602001808311610e2657829003601f168201915b505050505081525050828261ffff1681518110610e6357610e62611a39565b5b60200260200101819052508080600101915050610b2c565b508091505090565b6040518060800160405280606081526020016060815260200160608152602001600061ffff1681525090565b604051806080016040528060608152602001600061ffff16815260200160608152602001606081525090565b6040518060a0016040528060608152602001606081526020016060815260200160608152602001606081525090565b600061ffff82169050919050565b610f2181610f0a565b82525050565b6000602082019050610f3c6000830184610f18565b92915050565b6000604051905090565b600080fd5b600080fd5b600080fd5b600080fd5b6000601f19601f8301169050919050565b7f4e487b7100000000000000000000000000000000000000000000000000000000600052604160045260246000fd5b610fa982610f60565b810181811067ffffffffffffffff82111715610fc857610fc7610f71565b5b80604052505050565b6000610fdb610f42565b9050610fe78282610fa0565b919050565b600067ffffffffffffffff82111561100757611006610f71565b5b61101082610f60565b9050602081019050919050565b82818337600083830152505050565b600061103f61103a84610fec565b610fd1565b90508281526020810184848401111561105b5761105a610f5b565b5b61106684828561101d565b509392505050565b600082601f83011261108357611082610f56565b5b813561109384826020860161102c565b91505092915050565b600080600080600060a086880312156110b8576110b7610f4c565b5b600086013567ffffffffffffffff8111156110d6576110d5610f51565b5b6110e28882890161106e565b955050602086013567ffffffffffffffff81111561110357611102610f51565b5b61110f8882890161106e565b945050604086013567ffffffffffffffff8111156111305761112f610f51565b5b61113c8882890161106e565b935050606086013567ffffffffffffffff81111561115d5761115c610f51565b5b6111698882890161106e565b925050608086013567ffffffffffffffff81111561118a57611189610f51565b5b6111968882890161106e565b9150509295509295909350565b600081519050919050565b600082825260208201905092915050565b6000819050602082019050919050565b600081519050919050565b600082825260208201905092915050565b60005b838110156112095780820151818401526020810190506111ee565b60008484015250505050565b6000611220826111cf565b61122a81856111da565b935061123a8185602086016111eb565b61124381610f60565b840191505092915050565b61125781610f0a565b82525050565b6000608083016000830151848203600086015261127a8282611215565b915050602083015184820360208601526112948282611215565b915050604083015184820360408601526112ae8282611215565b91505060608301516112c3606086018261124e565b508091505092915050565b60006112da838361125d565b905092915050565b6000602082019050919050565b60006112fa826111a3565b61130481856111ae565b935083602082028501611316856111bf565b8060005b85811015611352578484038952815161133385826112ce565b945061133e836112e2565b925060208a0199505060018101905061131a565b50829750879550505050505092915050565b6000602082019050818103600083015261137e81846112ef565b905092915050565b60008060006060848603121561139f5761139e610f4c565b5b600084013567ffffffffffffffff8111156113bd576113bc610f51565b5b6113c98682870161106e565b935050602084013567ffffffffffffffff8111156113ea576113e9610f51565b5b6113f68682870161106e565b925050604084013567ffffffffffffffff81111561141757611416610f51565b5b6114238682870161106e565b9150509250925092565b600081519050919050565b600082825260208201905092915050565b6000819050602082019050919050565b600060808301600083015184820360008601526114768282611215565b915050602083015161148b602086018261124e565b50604083015184820360408601526114a38282611215565b915050606083015184820360608601526114bd8282611215565b9150508091505092915050565b60006114d68383611459565b905092915050565b6000602082019050919050565b60006114f68261142d565b6115008185611438565b93508360208202850161151285611449565b8060005b8581101561154e578484038952815161152f85826114ca565b945061153a836114de565b925060208a01995050600181019050611516565b50829750879550505050505092915050565b6000602082019050818103600083015261157a81846114eb565b905092915050565b600081519050919050565b600082825260208201905092915050565b6000819050602082019050919050565b600060a08301600083015184820360008601526115cb8282611215565b915050602083015184820360208601526115e58282611215565b915050604083015184820360408601526115ff8282611215565b915050606083015184820360608601526116198282611215565b915050608083015184820360808601526116338282611215565b9150508091505092915050565b600061164c83836115ae565b905092915050565b6000602082019050919050565b600061166c82611582565b611676818561158d565b9350836020820285016116888561159e565b8060005b858110156116c457848403895281516116a58582611640565b94506116b083611654565b925060208a0199505060018101905061168c565b50829750879550505050505092915050565b600060208201905081810360008301526116f08184611661565b905092915050565b7f4e487b7100000000000000000000000000000000000000000000000000000000600052602260045260246000fd5b6000600282049050600182168061173f57607f821691505b602082108103611752576117516116f8565b5b50919050565b60008190508160005260206000209050919050565b60006020601f8301049050919050565b600082821b905092915050565b6000600883026117ba7fffffffffffffffffffffffffffffffffffffffffffffffffffffffffffffffff8261177d565b6117c4868361177d565b95508019841693508086168417925050509392505050565b6000819050919050565b6000819050919050565b600061180b611806611801846117dc565b6117e6565b6117dc565b9050919050565b6000819050919050565b611825836117f0565b61183961183182611812565b84845461178a565b825550505050565b600090565b61184e611841565b61185981848461181c565b505050565b5b8181101561187d57611872600082611846565b60018101905061185f565b5050565b601f8211156118c25761189381611758565b61189c8461176d565b810160208510156118ab578190505b6118bf6118b78561176d565b83018261185e565b50505b505050565b600082821c905092915050565b60006118e5600019846008026118c7565b1980831691505092915050565b60006118fe83836118d4565b9150826002028217905092915050565b611917826111cf565b67ffffffffffffffff8111156119305761192f610f71565b5b61193a8254611727565b611945828285611881565b600060209050601f8311600181146119785760008415611966578287015190505b61197085826118f2565b8655506119d8565b601f19841661198686611758565b60005b828110156119ae57848901518255600182019150602085019450602081019050611989565b868310156119cb57848901516119c7601f8916826118d4565b8355505b6001600288020188555050505b505050505050565b7f4e487b7100000000000000000000000000000000000000000000000000000000600052601160045260246000fd5b6000611a1a82610f0a565b915061ffff8203611a2e57611a2d6119e0565b5b600182019050919050565b7f4e487b7100000000000000000000000000000000000000000000000000000000600052603260045260246000fdfea2646970667358221220587566e8c8a9d4be4cf7e5ded1fbc2a8a97a20e11d7b87bf974480cc1dbe850264736f6c634300081b0033",
  "linkReferences": {},
  "deployedLinkReferences": {}
}